:020000040800F2
:10000000F88A002091020008DD1000087310000833
:10001000D9100008270F0008571B00080000000037
:10002000000000000000000000000000B502000811
:100030002B0F000800000000210300083103000816
:10004000AB020008AB020008AB020008AB020008DC
:10005000AB020008AB020008AB020008AB020008CC
:10006000AB020008AB020008AB020008AB020008BC
:10007000AB020008AB020008AB020008AB020008AC
:10008000AB020008AB020008AB020008AB0200089C
:10009000AB020008AB020008AB020008AB0200088C
:1000A000AB020008AB020008AB020008AB0200087C
:1000B000AB020008AB020008AB020008AB0200086C
:1000C000AB020008AB020008AB020008AB0200085C
:1000D000AB020008E9180008AB020008AB020008F8
:1000E000AB020008AB020008AB020008AB0200083C
:1000F000AB020008AB020008AB020008AB0200082C
:10010000AB020008AB020008AB020008AB0200081B
:10011000AB020008AB020008AB020008AB0200080B
:10012000AB020008AB020008AB020008AB020008FB
:10013000DFF810D000F044FC004800471D20000804
:10014000AFF30080F88A00200246D2E84F0FC2E8E1
:10015000431F03B1F9E77047024652E8000F40EA37
:10016000010042E8000303B1F7E7704710B502460B
:1001700052E8000F20EA010442E8004303B1F7E728
:1001800010BD10B5024652E8000F00EA01048C428F
:1001900003D0BFF32F8F002010BD20EA010442E8F6
:1001A000004303B1EFE710BD10B5024652E8000F5F
:1001B000084203D1BFF32F8F002010BD20EA0104B5
:1001C00042E8004303B1F1E710BD024652E8000FD8
:1001D000411C42E8001303B1F8E7704710B502462E
:1001E000D2E85F0F814202D8BFF32F8F10BD441CAD
:1001F000C2E8534F03B1F3E710BD10B50246D2E891
:100200005F0F441CA14200D80024C2E8534F03B141
:10021000F5E710BD024652E8000F411E42E8001308
:1002200003B1F8E77047024652E8000F10B9BFF378
:100230002F8F7047411E42E8001303B1F4E7704767
:100240000246D2E85F0F10B9BFF32F8F7047411EEF
:10025000C2E8531F03B1F4E77047024652E8000FAB
:1002600010B9BFF32F8F7047016842E8001303B144
:10027000F4E7704702680A60BFF35F8F50E8002F11
:100280000B689342F6D140E8001303B1F2E77047E0
:100290000648804706480047FEE7FEE7FEE7FEE720
:1002A000FEE7FEE7FEE7FEE7FEE7FEE78918000847
:1002B000310100081EF0040F0CBFEFF30880EFF3CC
:1002C0000980816911F8021CD9B901B590E80F10B5
:1002D000E047BDE800508CE80300194B93E80600A6
:1002E000914208BF704719B12CE9F00FC1F838C02E
:1002F0001A60906BB0E8F00F80F309886FF0020E7F
:100300007047104A13689942FAD801B552F821C0D3
:100310000FC8E047BDE80050CCF80000704700006F
:1003200001B501F0DFFFBDE80140EFF3098CD4E730
:1003300001B502F087F9BDE80140EFF3098CCCE785
:10034000C8850020442700080FB400B58DB010A95F
:1003500009900B9000914FF0FF300A9000200C9014
:1003600005480690054807906A4609A80F9900F0CD
:10037000EFF90DB05DF814FB6D0700088B0700085E
:100380002DE9FF4F087883B09946FF2805D0491C16
:100390002D2804D00024002008E000200BE00124D8
:1003A000F9E700EB800003EB4000491C0B78FF2BC2
:1003B000F7D104B1404200230293147819461D4638
:1003C0002D2C01D02B2C04D1521C2D2C13D0002409
:1003D0000294AA461478FF2C0FD00A25A3FB0578B7
:1003E00001FB05814FF0000C03FB0C11521CE319BB
:1003F0004AEB0101EEE70124EAE7814453EA0100F8
:1004000002D019F5C87F06DA03980021C0E900116F
:1004100007B0BDE8F08F0025AE4E2F46DFF8B8825A
:10042000184600F0A4FACDE90001B9F1000002DAA3
:10043000C9F1000400E004460023A74A1AEB030BAD
:1004400042EB045A12E0E00707D02A46334638460A
:10045000414600F0ABF9074688462A463346104627
:10046000194600F0A3F905460E466410002CEAD1A7
:10047000DDE90001B9F1000F5A46534606DA00F0F3
:1004800007FA3A46434600F003FA05E000F08EF919
:100490003A46434600F08AF9029A0AB181F00041D7
:1004A000039AC2E90001B3E72DE9FF4F1F468DB063
:1004B000D7E901464FF0FF382E2045464FF000099E
:1004C0000B90B9696D1C0E988847396A8246884737
:1004D0000028F6D1BAF1FF3F0AD024F4D064002EF0
:1004E00011DDBAF12B0F08D0BAF12D0F0BD102E0BC
:1004F000404611B08DE744F48064B9696D1C0E98D4
:1005000088478246761E6946600501D52D2000E0A9
:100510002B208DF8000001F1010B0DF1200809E0FE
:10052000B9696D1C0E98884782460F9844F4007490
:10053000761E0560002E02DDBAF1300FF0D00B9967
:100540008A453ED144F0800406E00F99681CA9F169
:10055000010944F400740860B9696D1C761E0E9898
:10056000884782463028F0D02BE00B998A4505D188
:10057000200603D444F08004761E18E0504601F0B3
:100580000CFB08B30DF11301761E44F400748B4587
:1005900008D2AAF130000BF8010B200607D5A9F10B
:1005A000010003E0200602D409F101008146A00504
:1005B00002D50F99681C0860B9696D1C0E988847B0
:1005C0008246002ED1DC53E0002E51DDBAF1650FDA
:1005D00002D0BAF1450F4BD1A00549D5B9696D1CC0
:1005E00024F44074761E0E9888478246002E0CDD57
:1005F0002B2804D0BAF12D0F07D144F48074B969C7
:100600006D1C0E9888478246761EE00501D52D2187
:1006100000E02B2108F8011BCDF82C8021E00DF122
:100620002901761E44F4007488450CD2AAF13000EA
:1006300010F0FF0088F8000002D10B99884509D915
:1006400008F1010806E0E00501D5244801E042F286
:100650000F708146B9696D1C0E98884782460F98C5
:100660000560002E04DD504601F097FA0028D6D12F
:10067000F9690E988847FF208BF8000088F8000081
:100680000020069007904B466A4608A906A8FFF787
:1006900077FEA00502D46FF001002AE714F0240FC2
:1006A0000AD0E00714D1DDE906123868031D3B606B
:1006B0000068C0E900120BE0DDE9060100F063F913
:1006C0000146E00704D13868021D3A600068016005
:1006D00028460EE7000014400000F03FF1D8FFFF6D
:1006E0002DE9F05F0546002092469B468846064667
:1006F000814640241BE0284641464746224600F0FA
:1007000080F953465A46C01A914110D311461846F3
:10071000224600F067F92D1A67EB01084F46224682
:100720000120002100F05EF917EB00094E41201E68
:10073000A4F10104DFDC484631462A464346BDE8C1
:10074000F09F00000268114413780160184670475A
:10075000D1600449516104491162002111611146BF
:1007600000F064B945070008230A0008426842B156
:10077000016811F8013B23B1521EC0E9001218466E
:1007800070470121C160881E704742685AB1C36832
:10079000016843B983688B4205D0491E521CC0E9E9
:1007A0000012002070474FF0FF3070472DE9FE4FD8
:1007B00081EA030404F0004421F0004100944FF06A
:1007C000000B23F0004350EA01045ED052EA030418
:1007D0005BD0C3F30A54C1F30A552C44A4F2F3349A
:1007E0000194A0FB0254C1F3130141F48011C3F33F
:1007F000130343F4801301FB024400FB034E840AFD
:10080000970A44EA815447EA8357A4FB0768029594
:100810008D0A05FB07854FEA932C04FB0C54270532
:10082000029D4FEA065847EA1637B5EB08056EEB0E
:10083000070C870E920E47EA811742EA8312A7FB44
:100840000201B6EB0B0164EB00042B0D43EA0C3301
:100850005E1844EB1C50DA465146E7FB0201C5F333
:1008600013044FEA0B3343EA14534FEA0432019C5A
:1008700043EA0603A4F10C040294009CCDE900B401
:1008800000F0B2FA03B0BDE8F08F00200146F9E7AE
:100890002DE9F04D81EA030404F0004B21F00045FE
:1008A00014464FF0000A23F0004150EA050220D020
:1008B00054EA01021DD0C5F30A570246C5F31303DB
:1008C000C1F31300C1F30A5640F4801543F48013BA
:1008D000A7EB0608101BD64608F2FD3873EB05009F
:1008E00002D308F1010801E092185B41B8F1000F52
:1008F00003DA00200146BDE8F08D00204FF480119E
:10090000064684460EE0171B73EB050705D3121B42
:1009100063EB050306434CEA010C49084FEA30003B
:1009200092185B4150EA0107EDD152EA030012D060
:1009300082EA040083EA0501084305D0101BAB419D
:1009400006D20122002306E000224FF0004302E01D
:100950006FF0010253101AEB06004CEB085110EB3C
:100960000A0041EB0B01BDE8F04D00F02EBA0EB5C8
:1009700040F2334202920022CDE90022134600F0F9
:1009800033FA03B000BD01F0004330B421F0004160
:1009900050EA010206D00A0DA2F56072C1F31301FC
:1009A000002A02DC30BC00207047440F44EAC10436
:1009B000C100E01830BC00EBC25000F0CFB900001D
:1009C000064C074D06E0E06840F0010394E807009C
:1009D00098471034AC42F6D3FFF7AEFB88280008E6
:1009E000A8280008202A04DB203A00FA02F100209F
:1009F00070479140C2F1200320FA03F3194390405D
:100A00007047202A04DB203A21FA02F000217047C7
:100A100021FA02F3D040C2F1200291400843194666
:100A20007047C0B24FF4F05100F02CBA2DE9F34FEB
:100A30008BB04FF0000801F10C000C464FF0010B99
:100A400046460DF1080A019062690121019890471C
:100A5000051E2DD0252D2CD0216A8847C0B1626992
:100A6000012101989047216A88470028F7D1411E4B
:100A700062690198904700E0761CA1690B9888474D
:100A8000216A88470028F7D1E1690B988847DBE79E
:100A9000A1690B9888470746A84201D1761CD3E785
:100AA000E1690B9888477F1C02D1B8F1000F6FD025
:100AB00047E1002762693D463946019890472A2858
:100AC00004D162690121019890470125DFF88892DD
:100AD0006269012101989047A0F130010A290AD2E8
:100AE0004F45E5DC07EB870100EB4107303FDFD4E2
:100AF00045F01005ECE7E90601D46FF000476C28DB
:100B00000AD04C2814D0682815D06A280DD0742833
:100B10001CD07A281AD01DE0626901210198904703
:100B20006C2802D045F0040514E045F002050DE004
:100B300045F020050AE06269012101989047682884
:100B400002D045F0080505E045F400656269012121
:100B500001989047C4E9015765283DD019DC582811
:100B60007AD00CDC452837D004DC252826D0412853
:100B700031D131E046282FD047282CD12CE05B28FA
:100B800077D0612828D063287CD0642823D15AE00C
:100B9000D1E06F2848D008DC66281DD067281BD01C
:100BA000692821D06E2816D127E0702845D07328F7
:100BB00068D0752847D078280DD14DE0A1690B98F1
:100BC0008847054625283FF469AFE1690B988847B7
:100BD0006D1C3FF46AAFB4E023466A466FF0010033
:100BE0000B99FFF761FC9FE045F040006060A807AB
:100BF00023464FF0000236D43EE0E8077FF447AFCB
:100C00002068011D21600068290501D506701BE7D9
:100C1000290701D5068017E7A90703D5F117C0E911
:100C2000006111E706600FE745F040006060A8072B
:100C300023464FF0080216D41EE040F60E0125EAC6
:100C40000100606016E045F040006060A8072346A0
:100C50004FF00A0207D40FE045F040006060A8079B
:100C600008D5234610226FF001000B99AFF30080E6
:100C70005AE007E0234610226FF001000B99AFF312
:100C8000008051E04FF000094F464B46632802D0E8
:100C90005B2807D041E02079C00601D40120A06084
:100CA00001273AE062690121019890475E2805D149
:100CB0004FF001096269494601989047216939B9A5
:100CC00000210A46534643F82120491C0829FADB33
:100CD000B0B3216969B9C11700EBD16253110AEBB6
:100CE000830122F01F02821A01200B689040034307
:100CF0000B6062690121019890475D28E8D1B9F144
:100D0000000F09D00020514651F82020D24341F86D
:100D10002020401C0828F7DB02AB224600976FF02A
:100D200001000B99AFF3008000280CDA401C08D1B9
:100D3000BBF1000F05D04FF0FF300DB0BDE8F08FD4
:100D4000FFE74046F9E7E90701D108F10108064449
:100D50004FF0000B78E60000CCCCCC0C0029A8BFEB
:100D60007047401C490008BF20F00100704710B4D4
:100D7000B0FA80FC00FA0CF050EA010404BF10BC89
:100D8000704749B1CCF1200421FA04F411FA0CF1B6
:100D900018BF012121430843A3EB0C01CB1D4FEAEF
:100DA00000614FEA102042BF002010BC704700EBEA
:100DB000C35010440029A4BF10BC7047401C490018
:100DC00008BF20F0010010BC704710B5141E73F16D
:100DD000000408DA401C41F1000192185B411A43FB
:100DE00001D120F0010010BD2DE9F04D92469B4647
:100DF00011B1B1FA81F202E0B0FA80F220329046ED
:100E0000FFF7F0FD04460F4640EA0A0041EA0B01F5
:100E100053465A46084313D0114653EA010019D0ED
:100E2000C8F140025046FFF7ECFD05460E4650461D
:100E300059464246FFF7D6FD084305D0012004E09D
:100E400020463946BDE8F08D0020054346EAE076AD
:100E50002C4337430A986305E40AA0EB08000022FC
:100E6000FD0A44EA47540A3002D500200146E9E76A
:100E7000010510196941DDE9084500196941BDE81E
:100E8000F04DA2E77F2801D9002208E0064A02EBD4
:100E90005002C007127800D1120902F00F0201209F
:100EA00090400840704700004827000870B58C1833
:100EB00010F8015B15F0070301D110F8013B2A116E
:100EC00006D110F8012B03E010F8016B01F8016B5B
:100ED0005B1EF9D12B0705D40023521E0DD401F857
:100EE000013BFAE710F8013BCB1A921C03E013F820
:100EF000015B01F8015B521EF9D5A142D8D3002055
:100F000070BD10B5034607E018780C78A04201D0F8
:100F1000002010BD5B1C491C101EA2F10104A2B2EE
:100F2000F2D10120F5E700BFFEE7704701B502E00E
:100F30000098401E009000980028F9D108BD704725
:100F400070477047704770477047704770477047E9
:100F5000704770472DE9F041024600250026002029
:100F600000230024002791F803C00CF00F0591F82E
:100F700003C00CF0100CBCF1000F03D091F802C0BC
:100F80004CEA050591F800C0BCF1000F31D014689F
:100F900000202BE04FF0010C0CFA00F3B1F800C078
:100FA0000CEA03069E4220D183004FF00F0C0CFA8E
:100FB00003F7BC4305FA03FC4CEA040491F803C0B0
:100FC000BCF1280F06D14FF0010C0CFA00FCC2F85E
:100FD00014C00AE091F803C0BCF1480F05D14FF0EE
:100FE000010C0CFA00FCC2F810C0401C0828D1D338
:100FF0001460B1F800C0BCF1FF0F34DD546800206C
:101000002EE000F1080C4FF0010808FA0CF3B1F8DB
:1010100000C00CEA03069E4221D183004FF00F0C62
:101020000CFA03F7BC4305FA03FC4CEA040491F8FC
:1010300003C0BCF1280F05D100F1080C08FA0CF828
:10104000C2F8148091F803C0BCF1480F07D100F139
:10105000080C4FF0010808FA0CF8C2F81080401C88
:101060000828CED35460BDE8F0814161704701612A
:10107000704700BFFEE7000008B50121082000F01E
:1010800087F82020ADF8000010208DF80300032021
:101090008DF8020069460F48FFF75CFF0120ADF8AC
:1010A000000069460B48FFF755FF0220ADF800002D
:1010B00069460848FFF74EFF20210648FFF7D7FF93
:1010C00001210448FFF7D3FF02210248FFF7CFFFB9
:1010D00008BD0000000C014000BFFEE7704708B5E6
:1010E0004FF4A06000F046F825208DF800000120A4
:1010F0008DF801008DF802008DF80300684600F0BD
:1011000001F808BD70B5002100230F22C47804B394
:10111000154C246804F4E064C4F5E064210AC1F1CC
:101120000403CA40447804FA03F18478144021434C
:1011300009010E4C0678A155047804F01F0501241E
:10114000AC4005786D11AD0005F1E025C5F8004112
:1011500009E0047804F01F050124AC40044D067832
:10116000761145F8264070BD0CED00E000E400E08B
:1011700080E100E002490143024A1160704700002B
:101180000000FA050CED00E04FF0E0200069704728
:1011900029B1064A92690243044B9A6104E0034A6A
:1011A00092698243014B9A6170470000001002402F
:1011B00030B500210022002400232D4D6D6805F07C
:1011C0000C0121B1042905D0082923D105E0294DBE
:1011D000056022E0274D05601FE0254D6D6805F490
:1011E0007012234D6D6805F48034022505EB9242A0
:1011F0001CB9214D554305600BE01D4D6D6805F48C
:1012000000351DB11C4D5543056002E0194D554395
:10121000056002E0174D056000BF00BF144D6D680A
:1012200005F0F0010909154D6B5C0568DD4045606E
:101230000F4D6D6805F4E061090A104D6B5C45685F
:10124000DD4085600A4D6D6805F46051C90A0B4D9B
:101250006B5C4568DD40C560054D6D6805F4404137
:10126000890B074D6B5CC568B5FBF3F5056130BDB7
:101270000010024000127A0000093D005085002055
:101280006085002021B1028842F04002028004E023
:1012900002884FF6BF731A400280704770B505464A
:1012A0000C46164601211048FFF7DFFE032000F030
:1012B000C5F9C4F3074000F0C1F9C4F3072000F0FA
:1012C000BDF9E0B200F0BAF904E0FF2000F0B6F991
:1012D00028706D1C301EA6F101018EB2F5D10121DE
:1012E0000148FFF7C4FE70BD001001402DE9F05F1A
:1012F00007460E4614464FF00008C146C246002578
:10130000AB4606F0FF0ACAF10000C5B22046E1175D
:1013100004EB1161C1F30728E11704EB1161091215
:10132000A4EB012101F0FF09BAF1000F20D1B8F1BF
:10133000000F05D122463146384600F0C9F864E076
:1013400009E04FF480723146384600F0C1F806F5E6
:10135000807607F58077B8F10000A8F1010101F06F
:10136000FF08EED14A463146384600F0B1F84CE06D
:10137000B8F1000F18D1A94510DDA9EB050000F068
:10138000FF0B2A463146384600F0A2F82E442F447F
:101390005A463146384600F09BF836E02246314640
:1013A000384600F095F830E0601B84B22046E11723
:1013B00004EB1161C1F30728E11704EB1161091275
:1013C000A4EB012101F0FF092A463146384600F01E
:1013D0007FF82E442F4409E04FF48072314638469E
:1013E00000F076F806F5807607F58077B8F1000012
:1013F000A8F1010101F0FF08EED1B9F1000F04D00E
:101400004A463146384600F063F8BDE8F09F0000D8
:1014100000B587B001210803FFF7BAFE0121D420EF
:10142000FFF7B6FE0120ADF8040003208DF806009A
:1014300010208DF8070001A92248FFF78BFD20201E
:10144000ADF8040018208DF8070001A91E48FFF729
:1014500081FD4020ADF8040001A91B48FFF77AFD8B
:101460008020ADF8040001A91748FFF773FD0121A2
:101470001448FFF7FCFD0020ADF808004FF482701F
:10148000ADF80A000020ADF80C000220ADF80E0007
:101490000120ADF810004002ADF812000820ADF8B0
:1014A00014000020ADF816000720ADF8180002A9BE
:1014B000064800F037F901210448FFF7E3FE07B0C2
:1014C00000BD000000100140000801400030014054
:1014D00070B505460C46164600F006F90121154880
:1014E000FFF7C3FD022000F0A9F8C4F3074000F0A5
:1014F000A5F8C4F3072000F0A1F8E0B200F09EF8D0
:10150000B6F5807F04DD4FF480760BA000F026FB5B
:1015100003E0287800F092F86D1C301EA6F101015E
:101520008EB2F6D101210348FFF7A1FD00F0C2F809
:1015300070BD0000001001403C3C2D464C4153481A
:101540002D4552524F522D3E3E205350495F464C3E
:101550004153485F50616765577269746520746FC5
:101560006F206C61726765210A00000010B50024CD
:1015700001210C48FFF779FDAB2000F05FF8FF2058
:1015800000F05CF8FF2000F059F8FF2000F056F85A
:10159000FF2000F053F8044601210248FFF767FDE1
:1015A000204610BD001001402DE9F0410024002527
:1015B0000026002701210F48FFF757FD9F2000F06C
:1015C0003DF8FF2000F03AF80546FF2000F036F81D
:1015D0000646FF2000F032F8074601210548FFF7D4
:1015E00046FD280440EA062040EA07042046BDE8FC
:1015F000F08100000010014010B5044600F074F8BE
:1016000000F058F801210C48FFF72FFD202000F0D2
:1016100015F8C4F3074000F011F8C4F3072000F0F8
:101620000DF8E0B200F00AF801210348FFF71FFDB2
:1016300000F040F810BD00000010014010B5044655
:101640004FF48050194908600AE018490868411EA3
:10165000164A116020B9002000F082F8C0B210BD17
:101660000221134800F050F80028EED0214610481F
:1016700000F056F84FF480500C4908600AE00B491E
:101680000868411E094A116020B9012000F068F87D
:10169000C0B2E4E70121064800F036F80028EED099
:1016A000034800F03AF8C0B2D9E70000AC8500204A
:1016B0000030014010B5002401210A48FFF7D5FC95
:1016C0000520FFF7BBFF00BFFF20FFF7B7FF044671
:1016D00004F001000028F7D101210248FFF7C7FC00
:1016E00010BD00000010014010B501210548FFF7B2
:1016F000BCFC0620FFF7A2FF01210248FFF7B7FC60
:1017000010BD0000001001400246002013890B406C
:101710000BB1012000E00020704701468889704726
:101720008181704710B50022028802F441520B8873
:101730004C8823438C882343CC8823430C89234340
:101740004C8923438C892343CC8923431A43028049
:10175000838B4FF2FF74234083830B8A038210BD77
:1017600010B50446214602A000F0F8F9002010BD93
:101770003C3C2D464C4153482D4552524F522D3E34
:101780003E2053504920B5C8B4FDB3ACCAB1216561
:1017900072726F72436F6465203D2025640A0000F9
:1017A00010B500F001F810BD0CB5002001900090BC
:1017B0003348006840F480303149086000BF304849
:1017C000006800F4003000900198401C01900098DF
:1017D00018B90198B0F5A06FF1D12948006800F45C
:1017E000003010B10120009001E00020009000982E
:1017F000012843D12348006840F0100021490860C7
:101800000846006820F0030008600846006840F0C1
:10181000020008601A484068194948600846406854
:1018200048600846406840F4806048600846406868
:1018300020F47C1048600846406840F4E810486096
:101840000846006840F08070086000BF0C480068DF
:1018500000F000700028F9D00948406820F003002B
:10186000074948600846406840F00200486000BFF1
:101870000348406800F00C000828F9D10CBD0000B6
:10188000001002400020024010B51348006840F0EC
:1018900001001149086008464068104908400E4997
:1018A0004860084600680E4908400B490860084631
:1018B000006820F4802008600846406820F4FE009C
:1018C00048604FF41F008860FFF76AFF4FF0006028
:1018D0000449086010BD0000001002400000FFF83D
:1018E000FFFFF6FE08ED00E010B540F22551064876
:1018F00000F06DF830B1044800F024F9C4B220467D
:1019000000F0D0FA10BD00000038014021B18289FA
:1019100042F40052828104E082894DF6FF731A403E
:101920008281704700B585B001210420FFF730FCAB
:1019300001218803FFF72CFC4FF40070ADF8100074
:1019400018208DF8130003208DF8120004A9174801
:10195000FFF700FB4FF48060ADF8100004208DF815
:10196000130004A91148FFF7F5FA4FF4E130009095
:101970000020ADF80400ADF80600ADF80800ADF8A1
:101980000C000C20ADF80A006946094800F06EF81A
:10199000FFF7A5FB012240F22551054800F041F870
:1019A00001210348FFF7B2FF05B000BD0008014068
:1019B0000038014002460020B1F5007F00D100BF91
:1019C00013880B400BB1012000E00020704770B578
:1019D0000246002400230025002040F66A16B1428A
:1019E00000D100BFC1F3421501F01F03012606FA22
:1019F00003F3012D02D19689334006E0022D02D176
:101A0000168A334001E0968A33400C12012606FA0A
:101A100004F41688344013B10CB1012000E000201A
:101A200070BDF0B50346002400260025002040F6D6
:101A30006A17B94200D100BF1846C1F3421401F041
:101A40001F06012707FA06F5012C01D10C3004E02E
:101A5000022C01D1103000E014301AB107682F4376
:101A6000076002E00768AF430760F0BD2DE9F0476B
:101A700086B005460E460024A24600BFA1460027B8
:101A8000B08900B100BF2F462C8A4CF6FF7004408D
:101A9000F08804432C82AC894EF6F3100440B088E1
:101AA00031890843718908430443AC81AC8A4FF6FD
:101AB000FF400440B0890443AC8201A8FFF778FBE3
:101AC0001F48874202D1DDF810A001E0DDF80CA02C
:101AD000A88900F4004040B10AEBCA0000EB0A10EC
:101AE00031684900B0FBF1F807E00AEBCA0000EBEF
:101AF0000A1031688900B0FBF1F86420B8FBF0F0FF
:101B000004012009642101FB1089A88900F4004028
:101B100040B1322000EBC900B0FBF1F000F007004B
:101B2000044308E0322000EB09106421B0FBF1F01F
:101B300000F00F0004432C8106B0BDE8F0870000E0
:101B40000038014001468888C0F308007047C1F39F
:101B500008028280704700BFFEE700000FB4054B0B
:101B600010B503A9044A029800F01EF810BC5DF8F5
:101B700014FB0000951F0008B085002002E008C893
:101B8000121F08C1002AFAD170477047002001E0F7
:101B900001C1121F002AFBD1704730380A2801D238
:101BA00001207047002070472DE9FF4F8DB09B4604
:101BB0000F460446002606E025280BD05A460F990A
:101BC0009047641C761C20780028F5D111B030466F
:101BD000BDE8F08F0025A8460122984900E00543A2
:101BE00014F8013F203B02FA03F00842F7D12078B5
:101BF0002E2817D114F8010F45F004052A280ED01D
:101C00006FF02F022078A0F1300109290AD808EBE3
:101C1000880102EB410100EB0108641CF2E757F870
:101C2000048B641C20786C280DD004DC4C2812D066
:101C30006A2811D104E074280DD07A280CD10AE06A
:101C400045F4001507E0617845F48015814202D122
:101C5000641C05F58015641C2078692844D008DCD4
:101C60000028B3D0582867D063280FD0642808D143
:101C70003AE0702865D0732812D075285AD0782899
:101C80005AD05A460F999047761CD5E017F8040BA6
:101C90008DF8000000208DF80100E946012003E0E6
:101CA00057F8049B4FF0FF3069074FF0000501D44F
:101CB0000AE06D1C45450DDA8542FADB19F805107E
:101CC0000029F6D106E06D1C8542FCDB19F80510F1
:101CD0000029F8D12E4404E019F8010B5A460F9957
:101CE00090476D1EF8D2A7E00A200021CDE9080137
:101CF000C5F3025002280CD001CFC117021E71F1AA
:101D000000020CDA0023D0EB030063EB01012D226B
:101D100008E0FF1D27F00707F7E80201EEE72A05B4
:101D200004D52B228DF8282001223CE0EA073AD086
:101D30002022F7E70A2000E010200021CDE9080169
:101D400007E01020002145F00405CDE908014FF01F
:101D50000808C5F30250022810D001CF00214FF02F
:101D6000000A2A0720D52278702A0DD0DDE908C3A1
:101D70008CF0100C5CEA030C0CD015E0FF1D27F072
:101D80000707F7E80201EAE740228DF828204FF024
:101D9000010A0CE050EA010306D030238DF8283008
:101DA0008DF82920022292462278582A04D024A2B3
:101DB0000DF120090B9209E026A2F9E7DDE90823DD
:101DC000FEF78EFC0B9B9B5C09F8013D50EA01027B
:101DD000F4D1ADEB090020300890680701D44FF032
:101DE00001080899884503DD0898A8EB000000E089
:101DF00000208046002506E00AA85A46405D0F995B
:101E000090476D1C761C5545F6DB04E030205A46A1
:101E10000F999047761CB8F10001A8F10108F5DC94
:101E200005E019F8010B5A460F999047761C08995E
:101E3000481E08900029F4DC641CC4E6092801004F
:101E40003031323334353637383961626364656630
:101E500000000000303132333435363738394142F2
:101E600043444546000000002DE9FC410446267825
:101E7000012503E0605D4640681CC5B2122DF9DB08
:101E80008DF804609DF804000222694600F094F881
:101E90009DF801009DF8001040EA01273846BDE892
:101EA000FC8100002DE9F04104462646412E03D175
:101EB00001202E4981F881002C4890F882000128E9
:101EC00001D1BDE8F081294890F8810001284BD16B
:101ED000264890F8801090F88000401C234A82F831
:101EE00080001046465490F8800016283CD11046D9
:101EF000FFF7BAFF05461D48C07C1C49897C40EAB3
:101F00000127BD4226D11948007D0D2822D117484E
:101F1000407D0A281ED10120144981F8820000204A
:101F200081F8810012A0FFF719FE12480F49D1F87D
:101F30000A100160104A11A1FEF706FA11480B4978
:101F4000D1F802200260C98881800F4A0BA1FEF7F8
:101F5000FBF909E00120054981F88200002081F8A1
:101F600081000AA0FFF7FAFD00BFAAE7588600200B
:101F70000D0A0000A08500209085002020256C66B9
:101F800000000000A4850020988500206661696C2F
:101F90000000000070B504460D46E1B20548FFF7A9
:101FA000D6FD00BF80210348FFF704FD0028F9D0CB
:101FB000204670BD0038014010B513460024CC54B3
:101FC0005A1E0EE000F00F04092C04DC00F00F0490
:101FD00030348C5403E000F00F0437348C54521E1C
:101FE0000011002AEEDA10BD70B50B48B0F854604D
:101FF0005630FEF725F958B1314607485A30FEF7FA
:10200000FCF805460448C06D50F8254000BF00E0CC
:102010000024204670BD0000B4850020FFF72CF896
:10202000202040490860012008600220091D086046
:10203000FFF778FC3CA0FFF791FD4648FFF78EFDC7
:10204000FFF7E6F9FFF792FA43490860C820FEF768
:102050006DFFFFF7A9FA414908603F48026808464A
:1020600001683FA0FFF77AFD3C4800684A49884272
:102070003CD14AA0FFF772FD0020FFF7BDFA1B22FA
:1020800000214E48FFF732F94C494DA0FFF766FD9D
:102090001B2200215048FFF701F94F494FA0FFF7DD
:1020A0005DFD1B224C494548FEF72BFF5149087046
:1020B0000846007801280CD120201A490860012028
:1020C000091D08600220091F08604BA0FFF746FDAC
:1020D00018E020201349091D08600120091F08602D
:1020E000022008604DA0FFF739FD0BE020200D49CC
:1020F000091D08600120091F08600220086050A027
:10210000FFF72CFD0DE0554890F88200012808D11A
:1021100053A0FFF723FD0020504981F8820081F889
:102120008000F0E7100C01400D0A20D5E2CAC7D2AA
:10213000BBB8F6384D62797465B4AED0D0666C61C8
:1021400073682857323551363429CAB5D1E9200D84
:102150000A00000088270008848500208885002068
:102160000D0A20466C6173684944206973203078F9
:1021700025582C094D616E756661637475726572C0
:10218000204465766963652049442069732030786E
:1021900025580D0A000000001740EF000D0A20BC72
:1021A000ECB2E2B5BDB4AED0D0666C6173682057B6
:1021B000323551363420210D0A0000006885002098
:1021C0000D0A20D0B4C8EBB5C4CAFDBEDDCEAAA3AB
:1021D000BA2573200D090000DB8600200D0A20B609
:1021E000C1B3F6B5C4CAFDBEDDCEAAA3BA2573201D
:1021F0000D0A00008C8500200D0A20384DB4AED0A9
:10220000D0666C6173682857323551363429B2E292
:10221000CAD4B3C9B9A6210A0D0000000D0A20389E
:102220004DB4AED0D0666C617368285732355136E4
:102230003429B2E2CAD4CAA7B0DC210A0D000000DA
:102240000D0A20BBF1C8A1B2BBB5BD205732355134
:102250003634204944210A0D000000005886002031
:102260007375636365737300062809D2DFE800F0B5
:1022700008030405060704E003E002E001E000E0D3
:1022800000BF00BF00BFFEE70148007A70470000B2
:10229000B48500202DE9F0478046894698F8030070
:1022A00000F00200E0B1D8F80C4094F92170E66A21
:1022B00000BFB5684D4500D1AD682DB195F920003E
:1022C000B84201DD95F920707669002EF1D194F9BC
:1022D0002000B84204D084F82070204600F065F950
:1022E000BDE8F08770B500BFFFF77EFE044604B975
:1022F00034E02078F13809282ED2DFE800F0052DEF
:102300000D2D2D151D2D250000BF00BF254616489B
:10231000016E2846884720E000BF00BF25461248CE
:10232000416E2846884718E000BF00BF25460E488A
:10233000816E2846884710E000BF00BF25460A4846
:10234000C16E2846884708E000BF00BF2546064802
:10235000016F2846884700E000BFC5E700BF0020A6
:1023600000F0BCF870BD0000B48500202DE9F041FC
:1023700004460120607094F920700B4800BF0646A7
:10238000B56801E02E46AD681DB195F92000B84250
:10239000F8DCE660A560B46005B1EC602046FEF7AD
:1023A000D6FDBDE8F0810000D085002070B54A4818
:1023B000C56A05B970BDE869401EE861E869002892
:1023C0007ED100BF6878632836D008DC13280DD092
:1023D00033280FD0432811D053285DD11AE0732839
:1023E00036D0832840D0932856D149E02846FEF7BE
:1023F000A6FD52E02846FEF7A9FD4EE0284600F073
:10240000CCF8064600BF3446204600BF0646FEF71D
:1024100097FD42E0284600F0C0F8064600BF34466B
:10242000204600BF06462946FFF734FF204600BF7E
:102430000646FEF789FD30E0284600F0AEF8064675
:1024400000BF3446204600BF0646FEF77EFD24E06E
:10245000284600F0A2F8064600BF3446204600BFDA
:102460000646FEF76EFD18E0284600F096F8064690
:1024700000BF3446204600BF0646FEF763FD0CE071
:10248000284600F08AF8064600BF3446204600BFC2
:102490000646FEF758FD00E000BF00BF284600F0EA
:1024A000A5F8066831462846FEF753FD284600F099
:1024B00067F8284600F08EF82D692DB1E86900E034
:1024C00007E000283FF47EAF0DB1002068610248AC
:1024D000C56200BF6EE70000B48500202DE9F04121
:1024E0000546FFF7D1FE074600F02EF80646A5B9CF
:1024F0001448446A022F22D10CB394F9200096F9B3
:10250000201088421BDD204600F03AF83046FFF7E5
:102510002DFF204600F088F811E0022F0CD195F92C
:10252000200096F92010884206DD3046FFF71EFF96
:10253000284600F079F802E0284600F04BF8BDE8A4
:10254000F0810000B4850020014840697047000018
:10255000B485002030B5024691F9204000BF00BF8D
:102560001346986801E00346806818B190F920503E
:10257000A542F8DACB608860996000B1C16030BDD7
:10258000C16849B1D0E902129160816811B1D0E906
:102590000221D1600021C16070470146084600E079
:1025A000C0680278F12AFBD0704770B50646344601
:1025B00000E0E46814B12078F128FAD000BF00BF31
:1025C000254635B13046FFF7DBFF31462846FFF799
:1025D000C1FF70BD10B5044601206070214602485D
:1025E000FFF7B8FF10BD0000D0850020014691F82C
:1025F000222020238A6B98187047000010B5FFF73F
:10260000A3FF044664B1216BA06B884204D9206B00
:1026100000680449884203D021460120FFF724FEC8
:1026200010BD0000A52E5AE210B5044602206070CD
:1026300003488461FFF7E2FF2046FEF789FC10BDE6
:10264000B485002010B5FEF79FFD2548C068401CEA
:102650002349C8600846006D08B1086D8047FFF740
:10266000A5FE0020FFF73AFF1D48006C002835D07A
:102670001B48816B8069814205D01948816981635B
:10268000016CC1632AE01648C06B18B11448C16BD5
:10269000491EC1631248C06B00BB00BF1048007ADE
:1026A00002281BD10E48446AC4B194F92010806BF3
:1026B00090F92000814211D12046FFF761FF0849BF
:1026C000886BFFF787FF0649886BFEF740FC2046C2
:1026D000FFF7AAFF02488463016CC16310BD0000CC
:1026E000B48500200000000000000000C48000202D
:1026F00044000000508100200002000001000000A2
:1027000000000000000000000000000000000000C9
:1027100008810020440000005083002000020000D7
:102720002800000000000000000000000000000081
:102730000000000040800020340000007480002071
:102740005000000000000000DDDDDDDDDCBBBBDD96
:10275000DDDDDDDDDDDDDDDD988888888888888841
:102760007777777777888888855555566666666661
:102770006666666666688888833333322222222240
:10278000222222222228888D0D0A20CAB9D3C3D63C
:10279000B8C4CFD5DFB5D7B0E5CAB120D7F3C9CF1C
:1027A000BDC7C5C5D5EBCEBBD6C320B2BBD2AABD73
:1027B000AB504330B8C7D3D0CCF8C3B120B7C0D6E4
:1027C000B9D3B0CFEC504330D7F6535049464C41C3
:1027D0005348C6ACD1A1BDC5200D0A0052545820A3
:1027E00056352E352E32000003000000E8030000AD
:1027F0000500000000800020100000000000000024
:1028000000000000000000000000000000000000C8
:102810000000000000000020008000000000000018
:1028200000000000000000000000000000000000A8
:10283000000000000000000000000000000C00008C
:10284000E4260008082700082C27000804000000E0
:10285000C48000204C810020000000000000000027
:102860000000000000000000000000000000000068
:102870000000000000000000000000000000000058
:102880004080002074800020A8280008000000205C
:1028900058860000AC0E0008F82900085886002071
:1028A000A00400008C1B000801FF01FF01FF01FFD5
:1028B00001FF01FF01FF01FF01FF01FF01FF01FF18
:1028C00001FF01FF01FF01FF01FF01FF01FF01FF08
:1028D00001FF01FF01FF01FF01FF01FF01FF01FFF8
:1028E00001FF01FF01FF01FF01FF01FF01FF01FFE8
:1028F00001FF01FF01FF01FF01FF01FF01FF01FFD8
:1029000001FF01FF01FF01FF01FF01FF01FF01FFC7
:1029100001FF01FF01FF01FF01FF01FF01FF01FFB7
:1029200001FF01FF01FF01FF01FF01FF01FF01FFA7
:1029300001FF01FF01FF01FF01FF01FF01FF01FF97
:1029400001FF01FF01FF01FF01FF01FF01FF01FF87
:1029500001FF01FF01FF01FF01FF01FF01FF01FF77
:1029600001FF01FF01FF01FF01FF01FF01FF01FF67
:1029700001FF01FF01FF01FF01FF01FF01FF01FF57
:1029800001FF01FF01FF01FF01FF01FF01FF01FF47
:1029900001FF01FF01FF01FF01FF01FF01FF01FF37
:1029A00001FF01FF01FF01FF01FF01FF01FF01FF27
:1029B00001FF01D92D01020304044009060708099B
:1029C00002040608001C1DB8D0D0BBC4FAD1A1D3A4
:1029D000C3D2B0BBF073746D3332BFAAB7A2B0E5F7
:1029E0000D0A2D313233340433353662A013DC271F
:0829F000069C08D2B3FB0200B3
:0400000508000131BD
:00000001FF
